{
  "_format": "hh-sol-artifact-1",
  "contractName": "SubscriptionManager",
  "sourceName": "contracts/SubscriptionManager.sol",
  "abi": [
    {
      "inputs": [
        {
          "internalType": "address",
          "name": "_paymentToken",
          "type": "address"
        }
      ],
      "stateMutability": "nonpayable",
      "type": "constructor"
    },
    {
      "inputs": [],
      "name": "InvalidAmount",
      "type": "error"
    },
    {
      "inputs": [],
      "name": "InvalidRecipient",
      "type": "error"
    },
    {
      "inputs": [],
      "name": "NotSubscriber",
      "type": "error"
    },
    {
      "inputs": [],
      "name": "PaymentNotDue",
      "type": "error"
    },
    {
      "inputs": [],
      "name": "ReentrancyGuardReentrantCall",
      "type": "error"
    },
    {
      "inputs": [
        {
          "internalType": "address",
          "name": "token",
          "type": "address"
        }
      ],
      "name": "SafeERC20FailedOperation",
      "type": "error"
    },
    {
      "inputs": [],
      "name": "SubscriptionInactive",
      "type": "error"
    },
    {
      "inputs": [],
      "name": "SubscriptionNotFound",
      "type": "error"
    },
    {
      "inputs": [],
      "name": "TransferFailed",
      "type": "error"
    },
    {
      "anonymous": false,
      "inputs": [
        {
          "indexed": true,
          "internalType": "uint256",
          "name": "subscriptionId",
          "type": "uint256"
        },
        {
          "indexed": true,
          "internalType": "address",
          "name": "subscriber",
          "type": "address"
        },
        {
          "indexed": true,
          "internalType": "address",
          "name": "recipient",
          "type": "address"
        },
        {
          "indexed": false,
          "internalType": "uint256",
          "name": "amount",
          "type": "uint256"
        },
        {
          "indexed": false,
          "internalType": "uint256",
          "name": "nextDueAt",
          "type": "uint256"
        },
        {
          "indexed": false,
          "internalType": "uint256",
          "name": "timestamp",
          "type": "uint256"
        }
      ],
      "name": "PaymentMade",
      "type": "event"
    },
    {
      "anonymous": false,
      "inputs": [
        {
          "indexed": true,
          "internalType": "uint256",
          "name": "subscriptionId",
          "type": "uint256"
        },
        {
          "indexed": true,
          "internalType": "address",
          "name": "subscriber",
          "type": "address"
        },
        {
          "indexed": true,
          "internalType": "address",
          "name": "recipient",
          "type": "address"
        }
      ],
      "name": "SubscriptionCancelled",
      "type": "event"
    },
    {
      "anonymous": false,
      "inputs": [
        {
          "indexed": true,
          "internalType": "uint256",
          "name": "subscriptionId",
          "type": "uint256"
        },
        {
          "indexed": true,
          "internalType": "address",
          "name": "subscriber",
          "type": "address"
        },
        {
          "indexed": true,
          "internalType": "address",
          "name": "recipient",
          "type": "address"
        },
        {
          "indexed": false,
          "internalType": "uint256",
          "name": "amountPerCycle",
          "type": "uint256"
        },
        {
          "indexed": false,
          "internalType": "enum SubscriptionManager.Frequency",
          "name": "frequency",
          "type": "uint8"
        },
        {
          "indexed": false,
          "internalType": "uint256",
          "name": "nextDueAt",
          "type": "uint256"
        }
      ],
      "name": "SubscriptionCreated",
      "type": "event"
    },
    {
      "inputs": [
        {
          "internalType": "uint256",
          "name": "subscriptionId",
          "type": "uint256"
        }
      ],
      "name": "cancel",
      "outputs": [],
      "stateMutability": "nonpayable",
      "type": "function"
    },
    {
      "inputs": [
        {
          "internalType": "uint256",
          "name": "subscriptionId",
          "type": "uint256"
        }
      ],
      "name": "getSubscription",
      "outputs": [
        {
          "components": [
            {
              "internalType": "uint256",
              "name": "id",
              "type": "uint256"
            },
            {
              "internalType": "address",
              "name": "subscriber",
              "type": "address"
            },
            {
              "internalType": "address",
              "name": "recipient",
              "type": "address"
            },
            {
              "internalType": "uint256",
              "name": "amountPerCycle",
              "type": "uint256"
            },
            {
              "internalType": "enum SubscriptionManager.Frequency",
              "name": "frequency",
              "type": "uint8"
            },
            {
              "internalType": "uint256",
              "name": "nextDueAt",
              "type": "uint256"
            },
            {
              "internalType": "bool",
              "name": "active",
              "type": "bool"
            },
            {
              "internalType": "uint256",
              "name": "createdAt",
              "type": "uint256"
            }
          ],
          "internalType": "struct SubscriptionManager.Subscription",
          "name": "",
          "type": "tuple"
        }
      ],
      "stateMutability": "view",
      "type": "function"
    },
    {
      "inputs": [
        {
          "internalType": "address",
          "name": "subscriber",
          "type": "address"
        }
      ],
      "name": "getSubscriptionsBySubscriber",
      "outputs": [
        {
          "internalType": "uint256[]",
          "name": "",
          "type": "uint256[]"
        }
      ],
      "stateMutability": "view",
      "type": "function"
    },
    {
      "inputs": [
        {
          "internalType": "uint256",
          "name": "subscriptionId",
          "type": "uint256"
        }
      ],
      "name": "isPaymentDue",
      "outputs": [
        {
          "internalType": "bool",
          "name": "",
          "type": "bool"
        }
      ],
      "stateMutability": "view",
      "type": "function"
    },
    {
      "inputs": [],
      "name": "nextSubscriptionId",
      "outputs": [
        {
          "internalType": "uint256",
          "name": "",
          "type": "uint256"
        }
      ],
      "stateMutability": "view",
      "type": "function"
    },
    {
      "inputs": [
        {
          "internalType": "uint256",
          "name": "subscriptionId",
          "type": "uint256"
        }
      ],
      "name": "pay",
      "outputs": [],
      "stateMutability": "nonpayable",
      "type": "function"
    },
    {
      "inputs": [
        {
          "internalType": "uint256",
          "name": "subscriptionId",
          "type": "uint256"
        },
        {
          "internalType": "address",
          "name": "subscriber",
          "type": "address"
        }
      ],
      "name": "payFor",
      "outputs": [],
      "stateMutability": "nonpayable",
      "type": "function"
    },
    {
      "inputs": [],
      "name": "paymentToken",
      "outputs": [
        {
          "internalType": "contract IERC20",
          "name": "",
          "type": "address"
        }
      ],
      "stateMutability": "view",
      "type": "function"
    },
    {
      "inputs": [
        {
          "internalType": "address",
          "name": "recipient",
          "type": "address"
        },
        {
          "internalType": "uint256",
          "name": "amountPerCycle",
          "type": "uint256"
        },
        {
          "internalType": "enum SubscriptionManager.Frequency",
          "name": "frequency",
          "type": "uint8"
        }
      ],
      "name": "subscribe",
      "outputs": [
        {
          "internalType": "uint256",
          "name": "subscriptionId",
          "type": "uint256"
        }
      ],
      "stateMutability": "nonpayable",
      "type": "function"
    },
    {
      "inputs": [
        {
          "internalType": "uint256",
          "name": "",
          "type": "uint256"
        }
      ],
      "name": "subscriptions",
      "outputs": [
        {
          "internalType": "uint256",
          "name": "id",
          "type": "uint256"
        },
        {
          "internalType": "address",
          "name": "subscriber",
          "type": "address"
        },
        {
          "internalType": "address",
          "name": "recipient",
          "type": "address"
        },
        {
          "internalType": "uint256",
          "name": "amountPerCycle",
          "type": "uint256"
        },
        {
          "internalType": "enum SubscriptionManager.Frequency",
          "name": "frequency",
          "type": "uint8"
        },
        {
          "internalType": "uint256",
          "name": "nextDueAt",
          "type": "uint256"
        },
        {
          "internalType": "bool",
          "name": "active",
          "type": "bool"
        },
        {
          "internalType": "uint256",
          "name": "createdAt",
          "type": "uint256"
        }
      ],
      "stateMutability": "view",
      "type": "function"
    }
  ],
  "bytecode": "0x60a060405234801561001057600080fd5b50604051610ed0380380610ed083398101604081905261002f916100ae565b60017f9b779b17422d0df92223018b32b4d1fa46e071723d6817e2486d003becc55f00556001600160a01b03811661009d5760405162461bcd60e51b815260206004820152600d60248201526c24b73b30b634b2103a37b5b2b760991b604482015260640160405180910390fd5b6001600160a01b03166080526100de565b6000602082840312156100c057600080fd5b81516001600160a01b03811681146100d757600080fd5b9392505050565b608051610dc9610107600039600081816101290152818161042801526105bb0152610dc96000f3fe608060405234801561001057600080fd5b506004361061009e5760003560e01c8063c290d69111610066578063c290d691146101ab578063da58935f146101be578063dc311dd3146101d5578063e816e87f146101f5578063f4aec3211461021857600080fd5b80632d5bbf60146100a35780633013ce291461012457806340e58ee514610163578063812ed8981461017857806383d9dda814610198575b600080fd5b6101076100b1366004610b0f565b6001602081905260009182526040909120805491810154600282015460038301546004840154600585015460068601546007909601546001600160a01b03958616969490951694929360ff928316939192169088565b60405161011b989796959493929190610b60565b60405180910390f35b61014b7f000000000000000000000000000000000000000000000000000000000000000081565b6040516001600160a01b03909116815260200161011b565b610176610171366004610b0f565b61022b565b005b61018b610186366004610bce565b6102e8565b60405161011b9190610be9565b6101766101a6366004610c2d565b610354565b6101766101b9366004610b0f565b6104ea565b6101c760005481565b60405190815260200161011b565b6101e86101e3366004610b0f565b61067c565b60405161011b9190610c59565b610208610203366004610b0f565b61076c565b604051901515815260200161011b565b6101c7610226366004610ccb565b6107b1565b6000818152600160208190526040909120908101546001600160a01b031661026657604051631a00354f60e01b815260040160405180910390fd5b60018101546001600160a01b031633146102935760405163251cb70160e11b815260040160405180910390fd5b60068101805460ff19169055600281015460018201546040516001600160a01b03928316929091169084907f8b143fab101681a84d31f59bde0822fdc5f999c709e0f1e85b0916c6ddc5bc5990600090a45050565b6001600160a01b03811660009081526002602090815260409182902080548351818402810184019094528084526060939283018282801561034857602002820191906000526020600020905b815481526020019060010190808311610334575b50505050509050919050565b61035c6109a4565b6000828152600160208190526040909120908101546001600160a01b031661039757604051631a00354f60e01b815260040160405180910390fd5b600681015460ff166103bc576040516349e541ff60e11b815260040160405180910390fd5b60018101546001600160a01b038381169116146103ec5760405163251cb70160e11b815260040160405180910390fd5b80600501544210156104105760405162a71fbb60e01b815260040160405180910390fd5b60038101546002820154610453906001600160a01b037f0000000000000000000000000000000000000000000000000000000000000000811691869116846109c0565b6005820154600483015461046a919060ff16610a00565b600583018190556002830154600184015460408051858152602081019490945242908401526001600160a01b039182169291169086907f61c165d60a2e55bac037cb5ed9e61b19cfd83d03fd4ad23bf4193636cdd0cbf09060600160405180910390a450506104e66001600080516020610d7483398151915255565b5050565b6104f26109a4565b6000818152600160208190526040909120908101546001600160a01b031661052d57604051631a00354f60e01b815260040160405180910390fd5b600681015460ff16610552576040516349e541ff60e11b815260040160405180910390fd5b60018101546001600160a01b0316331461057f5760405163251cb70160e11b815260040160405180910390fd5b80600501544210156105a35760405162a71fbb60e01b815260040160405180910390fd5b600381015460028201546105e6906001600160a01b037f0000000000000000000000000000000000000000000000000000000000000000811691339116846109c0565b600582015460048301546105fd919060ff16610a00565b600583018190556002830154600184015460408051858152602081019490945242908401526001600160a01b039182169291169085907f61c165d60a2e55bac037cb5ed9e61b19cfd83d03fd4ad23bf4193636cdd0cbf09060600160405180910390a450506106796001600080516020610d7483398151915255565b50565b6040805161010081018252600080825260208201819052918101829052606081018290526080810182905260a0810182905260c0810182905260e081019190915260008281526001602081815260409283902083516101008101855281548152928101546001600160a01b039081169284019290925260028082015490921693830193909352600383015460608301526004830154919291608084019160ff9091169081111561072e5761072e610b28565b600281111561073f5761073f610b28565b815260058201546020820152600682015460ff161515604082015260079091015460609091015292915050565b6000818152600160205260408120600681015460ff16801561079a575060018101546001600160a01b031615155b80156107aa575080600501544210155b9392505050565b60006001600160a01b0384166107da57604051634e46966960e11b815260040160405180910390fd5b826000036107fb5760405163162908e360e11b815260040160405180910390fd5b60008054908061080a83610d25565b919050559050600061081c4284610a00565b9050604051806101000160405280838152602001336001600160a01b03168152602001866001600160a01b0316815260200185815260200184600281111561086657610866610b28565b8152602080820184905260016040808401829052426060948501526000878152828452819020855181559285015183830180546001600160a01b039283166001600160a01b03199182161790915591860151600280860180549290931691909316179055928401516003830155608084015160048301805493949193909260ff199091169184908111156108fc576108fc610b28565b021790555060a0820151600582015560c082015160068201805460ff191691151591909117905560e09091015160079091015533600081815260026020908152604080832080546001810182559084529190922001849055516001600160a01b038716919084907fab4f580bde502587d4fa8b7387ec8136568889c43ef6a3c57fbd16c36bf78c5d9061099490899089908890610d3e565b60405180910390a4509392505050565b6109ac610a6b565b6002600080516020610d7483398151915255565b6109ce848484846001610a9d565b6109fa57604051635274afe760e01b81526001600160a01b038516600482015260240160405180910390fd5b50505050565b600080826002811115610a1557610a15610b28565b03610a2e57610a278362093a80610d60565b9050610a65565b6001826002811115610a4257610a42610b28565b03610a5457610a278362278d00610d60565b610a62836301e13380610d60565b90505b92915050565b600080516020610d7483398151915254600203610a9b57604051633ee5aeb560e01b815260040160405180910390fd5b565b6040516323b872dd60e01b60008181526001600160a01b038781166004528616602452604485905291602083606481808c5af192506001600051148316610afd578383151615610af0573d6000823e3d81fd5b6000883b113d1516831692505b60405250600060605295945050505050565b600060208284031215610b2157600080fd5b5035919050565b634e487b7160e01b600052602160045260246000fd5b60038110610b5c57634e487b7160e01b600052602160045260246000fd5b9052565b8881526001600160a01b03888116602083015287166040820152606081018690526101008101610b936080830187610b3e565b60a082019490945291151560c083015260e09091015295945050505050565b80356001600160a01b0381168114610bc957600080fd5b919050565b600060208284031215610be057600080fd5b610a6282610bb2565b6020808252825182820181905260009190848201906040850190845b81811015610c2157835183529284019291840191600101610c05565b50909695505050505050565b60008060408385031215610c4057600080fd5b82359150610c5060208401610bb2565b90509250929050565b60006101008201905082518252602083015160018060a01b0380821660208501528060408601511660408501525050606083015160608301526080830151610ca46080840182610b3e565b5060a083015160a083015260c0830151151560c083015260e083015160e083015292915050565b600080600060608486031215610ce057600080fd5b610ce984610bb2565b925060208401359150604084013560038110610d0457600080fd5b809150509250925092565b634e487b7160e01b600052601160045260246000fd5b600060018201610d3757610d37610d0f565b5060010190565b83815260608101610d526020830185610b3e565b826040830152949350505050565b80820180821115610a6557610a65610d0f56fe9b779b17422d0df92223018b32b4d1fa46e071723d6817e2486d003becc55f00a2646970667358221220670f1af29cc172df3ee24e0f34d48bf64e004a6e71f652880257b83bd2e0722264736f6c63430008180033",
  "linkReferences": {},
  "deployedLinkReferences": {}
}