{"contracts/SubscriptionManagerFLOW.sol":{"SubscriptionManagerFLOW":{"abi":[{"inputs":[],"name":"InsufficientValue","type":"error"},{"inputs":[],"name":"InvalidAmount","type":"error"},{"inputs":[],"name":"InvalidRecipient","type":"error"},{"inputs":[],"name":"NotSubscriber","type":"error"},{"inputs":[],"name":"PaymentNotDue","type":"error"},{"inputs":[],"name":"ReentrancyGuardReentrantCall","type":"error"},{"inputs":[],"name":"SubscriptionInactive","type":"error"},{"inputs":[],"name":"SubscriptionNotFound","type":"error"},{"inputs":[],"name":"TransferFailed","type":"error"},{"anonymous":false,"inputs":[{"indexed":true,"internalType":"uint256","name":"subscriptionId","type":"uint256"},{"indexed":true,"internalType":"address","name":"subscriber","type":"address"},{"indexed":true,"internalType":"address","name":"recipient","type":"address"},{"indexed":false,"internalType":"uint256","name":"amount","type":"uint256"},{"indexed":false,"internalType":"uint256","name":"nextDueAt","type":"uint256"},{"indexed":false,"internalType":"uint256","name":"timestamp","type":"uint256"}],"name":"PaymentMade","type":"event"},{"anonymous":false,"inputs":[{"indexed":true,"internalType":"uint256","name":"subscriptionId","type":"uint256"},{"indexed":true,"internalType":"address","name":"subscriber","type":"address"},{"indexed":true,"internalType":"address","name":"recipient","type":"address"}],"name":"SubscriptionCancelled","type":"event"},{"anonymous":false,"inputs":[{"indexed":true,"internalType":"uint256","name":"subscriptionId","type":"uint256"},{"indexed":true,"internalType":"address","name":"subscriber","type":"address"},{"indexed":true,"internalType":"address","name":"recipient","type":"address"},{"indexed":false,"internalType":"uint256","name":"amountPerCycle","type":"uint256"},{"indexed":false,"internalType":"enum SubscriptionManagerFLOW.Frequency","name":"frequency","type":"uint8"},{"indexed":false,"internalType":"uint256","name":"nextDueAt","type":"uint256"}],"name":"SubscriptionCreated","type":"event"},{"inputs":[{"internalType":"uint256","name":"subscriptionId","type":"uint256"}],"name":"cancel","outputs":[],"stateMutability":"nonpayable","type":"function"},{"inputs":[{"internalType":"uint256","name":"subscriptionId","type":"uint256"}],"name":"getSubscription","outputs":[{"components":[{"internalType":"uint256","name":"id","type":"uint256"},{"internalType":"address","name":"subscriber","type":"address"},{"internalType":"address","name":"recipient","type":"address"},{"internalType":"uint256","name":"amountPerCycle","type":"uint256"},{"internalType":"enum SubscriptionManagerFLOW.Frequency","name":"frequency","type":"uint8"},{"internalType":"uint256","name":"nextDueAt","type":"uint256"},{"internalType":"bool","name":"active","type":"bool"},{"internalType":"uint256","name":"createdAt","type":"uint256"}],"internalType":"struct SubscriptionManagerFLOW.Subscription","name":"","type":"tuple"}],"stateMutability":"view","type":"function"},{"inputs":[{"internalType":"address","name":"subscriber","type":"address"}],"name":"getSubscriptionsBySubscriber","outputs":[{"internalType":"uint256[]","name":"","type":"uint256[]"}],"stateMutability":"view","type":"function"},{"inputs":[{"internalType":"uint256","name":"subscriptionId","type":"uint256"}],"name":"isPaymentDue","outputs":[{"internalType":"bool","name":"","type":"bool"}],"stateMutability":"view","type":"function"},{"inputs":[],"name":"nextSubscriptionId","outputs":[{"internalType":"uint256","name":"","type":"uint256"}],"stateMutability":"view","type":"function"},{"inputs":[{"internalType":"uint256","name":"subscriptionId","type":"uint256"}],"name":"pay","outputs":[],"stateMutability":"payable","type":"function"},{"inputs":[{"internalType":"address","name":"recipient","type":"address"},{"internalType":"uint256","name":"amountPerCycle","type":"uint256"},{"internalType":"enum SubscriptionManagerFLOW.Frequency","name":"frequency","type":"uint8"}],"name":"subscribe","outputs":[{"internalType":"uint256","name":"subscriptionId","type":"uint256"}],"stateMutability":"nonpayable","type":"function"},{"inputs":[{"internalType":"uint256","name":"","type":"uint256"}],"name":"subscriptions","outputs":[{"internalType":"uint256","name":"id","type":"uint256"},{"internalType":"address","name":"subscriber","type":"address"},{"internalType":"address","name":"recipient","type":"address"},{"internalType":"uint256","name":"amountPerCycle","type":"uint256"},{"internalType":"enum SubscriptionManagerFLOW.Frequency","name":"frequency","type":"uint8"},{"internalType":"uint256","name":"nextDueAt","type":"uint256"},{"internalType":"bool","name":"active","type":"bool"},{"internalType":"uint256","name":"createdAt","type":"uint256"}],"stateMutability":"view","type":"function"}],"evm":{"bytecode":{"linkReferences":{},"object":"608060405234801561001057600080fd5b5060017f9b779b17422d0df92223018b32b4d1fa46e071723d6817e2486d003becc55f0055610c84806100446000396000f3fe60806040526004361061007b5760003560e01c8063da58935f1161004e578063da58935f14610170578063dc311dd314610194578063e816e87f146101c1578063f4aec321146101f157600080fd5b80632d5bbf601461008057806340e58ee51461010e578063812ed89814610130578063c290d6911461015d575b600080fd5b34801561008c57600080fd5b506100f161009b366004610a03565b6001602081905260009182526040909120805491810154600282015460038301546004840154600585015460068601546007909601546001600160a01b03958616969490951694929360ff928316939192169088565b604051610105989796959493929190610a54565b60405180910390f35b34801561011a57600080fd5b5061012e610129366004610a03565b610211565b005b34801561013c57600080fd5b5061015061014b366004610ac2565b6102ce565b6040516101059190610add565b61012e61016b366004610a03565b61033a565b34801561017c57600080fd5b5061018660005481565b604051908152602001610105565b3480156101a057600080fd5b506101b46101af366004610a03565b6105fe565b6040516101059190610b21565b3480156101cd57600080fd5b506101e16101dc366004610a03565b6106ee565b6040519015158152602001610105565b3480156101fd57600080fd5b5061018661020c366004610b93565b610733565b6000818152600160208190526040909120908101546001600160a01b031661024c57604051631a00354f60e01b815260040160405180910390fd5b60018101546001600160a01b031633146102795760405163251cb70160e11b815260040160405180910390fd5b60068101805460ff19169055600281015460018201546040516001600160a01b03928316929091169084907f8b143fab101681a84d31f59bde0822fdc5f999c709e0f1e85b0916c6ddc5bc5990600090a45050565b6001600160a01b03811660009081526002602090815260409182902080548351818402810184019094528084526060939283018282801561032e57602002820191906000526020600020905b81548152602001906001019080831161031a575b50505050509050919050565b610342610926565b6000818152600160208190526040909120908101546001600160a01b031661037d57604051631a00354f60e01b815260040160405180910390fd5b600681015460ff166103a2576040516349e541ff60e11b815260040160405180910390fd5b60018101546001600160a01b031633146103cf5760405163251cb70160e11b815260040160405180910390fd5b80600501544210156103f35760405162a71fbb60e01b815260040160405180910390fd5b6003810154348111156104195760405163044044a560e21b815260040160405180910390fd5b60058201546004830154610430919060ff16610954565b600583015560028201546040516000916001600160a01b03169083908381818185875af1925050503d8060008114610484576040519150601f19603f3d011682016040523d82523d6000602084013e610489565b606091505b50509050806104ab576040516312171d8360e31b815260040160405180910390fd5b8134111561056d576000336104c08434610bed565b604051600081818185875af1925050503d80600081146104fc576040519150601f19603f3d011682016040523d82523d6000602084013e610501565b606091505b505090508061056b5760028401546000906001600160a01b03166105258534610bed565b604051600081818185875af1925050503d8060008114610561576040519150601f19603f3d011682016040523d82523d6000602084013e610566565b606091505b505050505b505b60028301546001840154600585015460408051868152602081019290925242908201526001600160a01b03928316929091169086907f61c165d60a2e55bac037cb5ed9e61b19cfd83d03fd4ad23bf4193636cdd0cbf09060600160405180910390a45050506105fb60017f9b779b17422d0df92223018b32b4d1fa46e071723d6817e2486d003becc55f0055565b50565b6040805161010081018252600080825260208201819052918101829052606081018290526080810182905260a0810182905260c0810182905260e081019190915260008281526001602081815260409283902083516101008101855281548152928101546001600160a01b039081169284019290925260028082015490921693830193909352600383015460608301526004830154919291608084019160ff909116908111156106b0576106b0610a1c565b60028111156106c1576106c1610a1c565b815260058201546020820152600682015460ff161515604082015260079091015460609091015292915050565b6000818152600160205260408120600681015460ff16801561071c575060018101546001600160a01b031615155b801561072c575080600501544210155b9392505050565b60006001600160a01b03841661075c57604051634e46966960e11b815260040160405180910390fd5b8260000361077d5760405163162908e360e11b815260040160405180910390fd5b60008054908061078c83610c00565b919050559050600061079e4284610954565b9050604051806101000160405280838152602001336001600160a01b03168152602001866001600160a01b031681526020018581526020018460028111156107e8576107e8610a1c565b8152602080820184905260016040808401829052426060948501526000878152828452819020855181559285015183830180546001600160a01b039283166001600160a01b03199182161790915591860151600280860180549290931691909316179055928401516003830155608084015160048301805493949193909260ff1990911691849081111561087e5761087e610a1c565b021790555060a0820151600582015560c082015160068201805460ff191691151591909117905560e09091015160079091015533600081815260026020908152604080832080546001810182559084529190922001849055516001600160a01b038716919084907fab4f580bde502587d4fa8b7387ec8136568889c43ef6a3c57fbd16c36bf78c5d9061091690899089908890610c19565b60405180910390a4509392505050565b61092e6109bf565b60027f9b779b17422d0df92223018b32b4d1fa46e071723d6817e2486d003becc55f0055565b60008082600281111561096957610969610a1c565b036109825761097b8362093a80610c3b565b90506109b9565b600182600281111561099657610996610a1c565b036109a85761097b8362278d00610c3b565b6109b6836301e13380610c3b565b90505b92915050565b7f9b779b17422d0df92223018b32b4d1fa46e071723d6817e2486d003becc55f0054600203610a0157604051633ee5aeb560e01b815260040160405180910390fd5b565b600060208284031215610a1557600080fd5b5035919050565b634e487b7160e01b600052602160045260246000fd5b60038110610a5057634e487b7160e01b600052602160045260246000fd5b9052565b8881526001600160a01b03888116602083015287166040820152606081018690526101008101610a876080830187610a32565b60a082019490945291151560c083015260e09091015295945050505050565b80356001600160a01b0381168114610abd57600080fd5b919050565b600060208284031215610ad457600080fd5b6109b682610aa6565b6020808252825182820181905260009190848201906040850190845b81811015610b1557835183529284019291840191600101610af9565b50909695505050505050565b60006101008201905082518252602083015160018060a01b0380821660208501528060408601511660408501525050606083015160608301526080830151610b6c6080840182610a32565b5060a083015160a083015260c0830151151560c083015260e083015160e083015292915050565b600080600060608486031215610ba857600080fd5b610bb184610aa6565b925060208401359150604084013560038110610bcc57600080fd5b809150509250925092565b634e487b7160e01b600052601160045260246000fd5b818103818111156109b9576109b9610bd7565b600060018201610c1257610c12610bd7565b5060010190565b83815260608101610c2d6020830185610a32565b826040830152949350505050565b808201808211156109b9576109b9610bd756fea264697066735822122054c38597cdca98ccb84f20717e214f98df0382718974d88d50dfa0245d8d83d564736f6c63430008180033","opcodes":"PUSH1 0x80 PUSH1 0x40 MSTORE CALLVALUE DUP1 ISZERO PUSH2 0x10 JUMPI PUSH1 0x0 DUP1 REVERT JUMPDEST POP PUSH1 0x1 PUSH32 0x9B779B17422D0DF92223018B32B4D1FA46E071723D6817E2486D003BECC55F00 SSTORE PUSH2 0xC84 DUP1 PUSH2 0x44 PUSH1 0x0 CODECOPY PUSH1 0x0 RETURN INVALID PUSH1 0x80 PUSH1 0x40 MSTORE PUSH1 0x4 CALLDATASIZE LT PUSH2 0x7B JUMPI PUSH1 0x0 CALLDATALOAD PUSH1 0xE0 SHR DUP1 PUSH4 0xDA58935F GT PUSH2 0x4E JUMPI DUP1 PUSH4 0xDA58935F EQ PUSH2 0x170 JUMPI DUP1 PUSH4 0xDC311DD3 EQ PUSH2 0x194 JUMPI DUP1 PUSH4 0xE816E87F EQ PUSH2 0x1C1 JUMPI DUP1 PUSH4 0xF4AEC321 EQ PUSH2 0x1F1 JUMPI PUSH1 0x0 DUP1 REVERT JUMPDEST DUP1 PUSH4 0x2D5BBF60 EQ PUSH2 0x80 JUMPI DUP1 PUSH4 0x40E58EE5 EQ PUSH2 0x10E JUMPI DUP1 PUSH4 0x812ED898 EQ PUSH2 0x130 JUMPI DUP1 PUSH4 0xC290D691 EQ PUSH2 0x15D JUMPI JUMPDEST PUSH1 0x0 DUP1 REVERT JUMPDEST CALLVALUE DUP1 ISZERO PUSH2 0x8C JUMPI PUSH1 0x0 DUP1 REVERT JUMPDEST POP PUSH2 0xF1 PUSH2 0x9B CALLDATASIZE PUSH1 0x4 PUSH2 0xA03 JUMP JUMPDEST PUSH1 0x1 PUSH1 0x20 DUP2 SWAP1 MSTORE PUSH1 0x0 SWAP2 DUP3 MSTORE PUSH1 0x40 SWAP1 SWAP2 KECCAK256 DUP1 SLOAD SWAP2 DUP2 ADD SLOAD PUSH1 0x2 DUP3 ADD SLOAD PUSH1 0x3 DUP4 ADD SLOAD PUSH1 0x4 DUP5 ADD SLOAD PUSH1 0x5 DUP6 ADD SLOAD PUSH1 0x6 DUP7 ADD SLOAD PUSH1 0x7 SWAP1 SWAP7 ADD SLOAD PUSH1 0x1 PUSH1 0x1 PUSH1 0xA0 SHL SUB SWAP6 DUP7 AND SWAP7 SWAP5 SWAP1 SWAP6 AND SWAP5 SWAP3 SWAP4 PUSH1 0xFF SWAP3 DUP4 AND SWAP4 SWAP2 SWAP3 AND SWAP1 DUP9 JUMP JUMPDEST PUSH1 0x40 MLOAD PUSH2 0x105 SWAP9 SWAP8 SWAP7 SWAP6 SWAP5 SWAP4 SWAP3 SWAP2 SWAP1 PUSH2 0xA54 JUMP JUMPDEST PUSH1 0x40 MLOAD DUP1 SWAP2 SUB SWAP1 RETURN JUMPDEST CALLVALUE DUP1 ISZERO PUSH2 0x11A JUMPI PUSH1 0x0 DUP1 REVERT JUMPDEST POP PUSH2 0x12E PUSH2 0x129 CALLDATASIZE PUSH1 0x4 PUSH2 0xA03 JUMP JUMPDEST PUSH2 0x211 JUMP JUMPDEST STOP JUMPDEST CALLVALUE DUP1 ISZERO PUSH2 0x13C JUMPI PUSH1 0x0 DUP1 REVERT JUMPDEST POP PUSH2 0x150 PUSH2 0x14B CALLDATASIZE PUSH1 0x4 PUSH2 0xAC2 JUMP JUMPDEST PUSH2 0x2CE JUMP JUMPDEST PUSH1 0x40 MLOAD PUSH2 0x105 SWAP2 SWAP1 PUSH2 0xADD JUMP JUMPDEST PUSH2 0x12E PUSH2 0x16B CALLDATASIZE PUSH1 0x4 PUSH2 0xA03 JUMP JUMPDEST PUSH2 0x33A JUMP JUMPDEST CALLVALUE DUP1 ISZERO PUSH2 0x17C JUMPI PUSH1 0x0 DUP1 REVERT JUMPDEST POP PUSH2 0x186 PUSH1 0x0 SLOAD DUP2 JUMP JUMPDEST PUSH1 0x40 MLOAD SWAP1 DUP2 MSTORE PUSH1 0x20 ADD PUSH2 0x105 JUMP JUMPDEST CALLVALUE DUP1 ISZERO PUSH2 0x1A0 JUMPI PUSH1 0x0 DUP1 REVERT JUMPDEST POP PUSH2 0x1B4 PUSH2 0x1AF CALLDATASIZE PUSH1 0x4 PUSH2 0xA03 JUMP JUMPDEST PUSH2 0x5FE JUMP JUMPDEST PUSH1 0x40 MLOAD PUSH2 0x105 SWAP2 SWAP1 PUSH2 0xB21 JUMP JUMPDEST CALLVALUE DUP1 ISZERO PUSH2 0x1CD JUMPI PUSH1 0x0 DUP1 REVERT JUMPDEST POP PUSH2 0x1E1 PUSH2 0x1DC CALLDATASIZE PUSH1 0x4 PUSH2 0xA03 JUMP JUMPDEST PUSH2 0x6EE JUMP JUMPDEST PUSH1 0x40 MLOAD SWAP1 ISZERO ISZERO DUP2 MSTORE PUSH1 0x20 ADD PUSH2 0x105 JUMP JUMPDEST CALLVALUE DUP1 ISZERO PUSH2 0x1FD JUMPI PUSH1 0x0 DUP1 REVERT JUMPDEST POP PUSH2 0x186 PUSH2 0x20C CALLDATASIZE PUSH1 0x4 PUSH2 0xB93 JUMP JUMPDEST PUSH2 0x733 JUMP JUMPDEST PUSH1 0x0 DUP2 DUP2 MSTORE PUSH1 0x1 PUSH1 0x20 DUP2 SWAP1 MSTORE PUSH1 0x40 SWAP1 SWAP2 KECCAK256 SWAP1 DUP2 ADD SLOAD PUSH1 0x1 PUSH1 0x1 PUSH1 0xA0 SHL SUB AND PUSH2 0x24C JUMPI PUSH1 0x40 MLOAD PUSH4 0x1A00354F PUSH1 0xE0 SHL DUP2 MSTORE PUSH1 0x4 ADD PUSH1 0x40 MLOAD DUP1 SWAP2 SUB SWAP1 REVERT JUMPDEST PUSH1 0x1 DUP2 ADD SLOAD PUSH1 0x1 PUSH1 0x1 PUSH1 0xA0 SHL SUB AND CALLER EQ PUSH2 0x279 JUMPI PUSH1 0x40 MLOAD PUSH4 0x251CB701 PUSH1 0xE1 SHL DUP2 MSTORE PUSH1 0x4 ADD PUSH1 0x40 MLOAD DUP1 SWAP2 SUB SWAP1 REVERT JUMPDEST PUSH1 0x6 DUP2 ADD DUP1 SLOAD PUSH1 0xFF NOT AND SWAP1 SSTORE PUSH1 0x2 DUP2 ADD SLOAD PUSH1 0x1 DUP3 ADD SLOAD PUSH1 0x40 MLOAD PUSH1 0x1 PUSH1 0x1 PUSH1 0xA0 SHL SUB SWAP3 DUP4 AND SWAP3 SWAP1 SWAP2 AND SWAP1 DUP5 SWAP1 PUSH32 0x8B143FAB101681A84D31F59BDE0822FDC5F999C709E0F1E85B0916C6DDC5BC59 SWAP1 PUSH1 0x0 SWAP1 LOG4 POP POP JUMP JUMPDEST PUSH1 0x1 PUSH1 0x1 PUSH1 0xA0 SHL SUB DUP2 AND PUSH1 0x0 SWAP1 DUP2 MSTORE PUSH1 0x2 PUSH1 0x20 SWAP1 DUP2 MSTORE PUSH1 0x40 SWAP2 DUP3 SWAP1 KECCAK256 DUP1 SLOAD DUP4 MLOAD DUP2 DUP5 MUL DUP2 ADD DUP5 ADD SWAP1 SWAP5 MSTORE DUP1 DUP5 MSTORE PUSH1 0x60 SWAP4 SWAP3 DUP4 ADD DUP3 DUP3 DUP1 ISZERO PUSH2 0x32E JUMPI PUSH1 0x20 MUL DUP3 ADD SWAP2 SWAP1 PUSH1 0x0 MSTORE PUSH1 0x20 PUSH1 0x0 KECCAK256 SWAP1 JUMPDEST DUP2 SLOAD DUP2 MSTORE PUSH1 0x20 ADD SWAP1 PUSH1 0x1 ADD SWAP1 DUP1 DUP4 GT PUSH2 0x31A JUMPI JUMPDEST POP POP POP POP POP SWAP1 POP SWAP2 SWAP1 POP JUMP JUMPDEST PUSH2 0x342 PUSH2 0x926 JUMP JUMPDEST PUSH1 0x0 DUP2 DUP2 MSTORE PUSH1 0x1 PUSH1 0x20 DUP2 SWAP1 MSTORE PUSH1 0x40 SWAP1 SWAP2 KECCAK256 SWAP1 DUP2 ADD SLOAD PUSH1 0x1 PUSH1 0x1 PUSH1 0xA0 SHL SUB AND PUSH2 0x37D JUMPI PUSH1 0x40 MLOAD PUSH4 0x1A00354F PUSH1 0xE0 SHL DUP2 MSTORE PUSH1 0x4 ADD PUSH1 0x40 MLOAD DUP1 SWAP2 SUB SWAP1 REVERT JUMPDEST PUSH1 0x6 DUP2 ADD SLOAD PUSH1 0xFF AND PUSH2 0x3A2 JUMPI PUSH1 0x40 MLOAD PUSH4 0x49E541FF PUSH1 0xE1 SHL DUP2 MSTORE PUSH1 0x4 ADD PUSH1 0x40 MLOAD DUP1 SWAP2 SUB SWAP1 REVERT JUMPDEST PUSH1 0x1 DUP2 ADD SLOAD PUSH1 0x1 PUSH1 0x1 PUSH1 0xA0 SHL SUB AND CALLER EQ PUSH2 0x3CF JUMPI PUSH1 0x40 MLOAD PUSH4 0x251CB701 PUSH1 0xE1 SHL DUP2 MSTORE PUSH1 0x4 ADD PUSH1 0x40 MLOAD DUP1 SWAP2 SUB SWAP1 REVERT JUMPDEST DUP1 PUSH1 0x5 ADD SLOAD TIMESTAMP LT ISZERO PUSH2 0x3F3 JUMPI PUSH1 0x40 MLOAD PUSH3 0xA71FBB PUSH1 0xE0 SHL DUP2 MSTORE PUSH1 0x4 ADD PUSH1 0x40 MLOAD DUP1 SWAP2 SUB SWAP1 REVERT JUMPDEST PUSH1 0x3 DUP2 ADD SLOAD CALLVALUE DUP2 GT ISZERO PUSH2 0x419 JUMPI PUSH1 0x40 MLOAD PUSH4 0x44044A5 PUSH1 0xE2 SHL DUP2 MSTORE PUSH1 0x4 ADD PUSH1 0x40 MLOAD DUP1 SWAP2 SUB SWAP1 REVERT JUMPDEST PUSH1 0x5 DUP3 ADD SLOAD PUSH1 0x4 DUP4 ADD SLOAD PUSH2 0x430 SWAP2 SWAP1 PUSH1 0xFF AND PUSH2 0x954 JUMP JUMPDEST PUSH1 0x5 DUP4 ADD SSTORE PUSH1 0x2 DUP3 ADD SLOAD PUSH1 0x40 MLOAD PUSH1 0x0 SWAP2 PUSH1 0x1 PUSH1 0x1 PUSH1 0xA0 SHL SUB AND SWAP1 DUP4 SWAP1 DUP4 DUP2 DUP2 DUP2 DUP6 DUP8 GAS CALL SWAP3 POP POP POP RETURNDATASIZE DUP1 PUSH1 0x0 DUP2 EQ PUSH2 0x484 JUMPI PUSH1 0x40 MLOAD SWAP2 POP PUSH1 0x1F NOT PUSH1 0x3F RETURNDATASIZE ADD AND DUP3 ADD PUSH1 0x40 MSTORE RETURNDATASIZE DUP3 MSTORE RETURNDATASIZE PUSH1 0x0 PUSH1 0x20 DUP5 ADD RETURNDATACOPY PUSH2 0x489 JUMP JUMPDEST PUSH1 0x60 SWAP2 POP JUMPDEST POP POP SWAP1 POP DUP1 PUSH2 0x4AB JUMPI PUSH1 0x40 MLOAD PUSH4 0x12171D83 PUSH1 0xE3 SHL DUP2 MSTORE PUSH1 0x4 ADD PUSH1 0x40 MLOAD DUP1 SWAP2 SUB SWAP1 REVERT JUMPDEST DUP2 CALLVALUE GT ISZERO PUSH2 0x56D JUMPI PUSH1 0x0 CALLER PUSH2 0x4C0 DUP5 CALLVALUE PUSH2 0xBED JUMP JUMPDEST PUSH1 0x40 MLOAD PUSH1 0x0 DUP2 DUP2 DUP2 DUP6 DUP8 GAS CALL SWAP3 POP POP POP RETURNDATASIZE DUP1 PUSH1 0x0 DUP2 EQ PUSH2 0x4FC JUMPI PUSH1 0x40 MLOAD SWAP2 POP PUSH1 0x1F NOT PUSH1 0x3F RETURNDATASIZE ADD AND DUP3 ADD PUSH1 0x40 MSTORE RETURNDATASIZE DUP3 MSTORE RETURNDATASIZE PUSH1 0x0 PUSH1 0x20 DUP5 ADD RETURNDATACOPY PUSH2 0x501 JUMP JUMPDEST PUSH1 0x60 SWAP2 POP JUMPDEST POP POP SWAP1 POP DUP1 PUSH2 0x56B JUMPI PUSH1 0x2 DUP5 ADD SLOAD PUSH1 0x0 SWAP1 PUSH1 0x1 PUSH1 0x1 PUSH1 0xA0 SHL SUB AND PUSH2 0x525 DUP6 CALLVALUE PUSH2 0xBED JUMP JUMPDEST PUSH1 0x40 MLOAD PUSH1 0x0 DUP2 DUP2 DUP2 DUP6 DUP8 GAS CALL SWAP3 POP POP POP RETURNDATASIZE DUP1 PUSH1 0x0 DUP2 EQ PUSH2 0x561 JUMPI PUSH1 0x40 MLOAD SWAP2 POP PUSH1 0x1F NOT PUSH1 0x3F RETURNDATASIZE ADD AND DUP3 ADD PUSH1 0x40 MSTORE RETURNDATASIZE DUP3 MSTORE RETURNDATASIZE PUSH1 0x0 PUSH1 0x20 DUP5 ADD RETURNDATACOPY PUSH2 0x566 JUMP JUMPDEST PUSH1 0x60 SWAP2 POP JUMPDEST POP POP POP POP JUMPDEST POP JUMPDEST PUSH1 0x2 DUP4 ADD SLOAD PUSH1 0x1 DUP5 ADD SLOAD PUSH1 0x5 DUP6 ADD SLOAD PUSH1 0x40 DUP1 MLOAD DUP7 DUP2 MSTORE PUSH1 0x20 DUP2 ADD SWAP3 SWAP1 SWAP3 MSTORE TIMESTAMP SWAP1 DUP3 ADD MSTORE PUSH1 0x1 PUSH1 0x1 PUSH1 0xA0 SHL SUB SWAP3 DUP4 AND SWAP3 SWAP1 SWAP2 AND SWAP1 DUP7 SWAP1 PUSH32 0x61C165D60A2E55BAC037CB5ED9E61B19CFD83D03FD4AD23BF4193636CDD0CBF0 SWAP1 PUSH1 0x60 ADD PUSH1 0x40 MLOAD DUP1 SWAP2 SUB SWAP1 LOG4 POP POP POP PUSH2 0x5FB PUSH1 0x1 PUSH32 0x9B779B17422D0DF92223018B32B4D1FA46E071723D6817E2486D003BECC55F00 SSTORE JUMP JUMPDEST POP JUMP JUMPDEST PUSH1 0x40 DUP1 MLOAD PUSH2 0x100 DUP2 ADD DUP3 MSTORE PUSH1 0x0 DUP1 DUP3 MSTORE PUSH1 0x20 DUP3 ADD DUP2 SWAP1 MSTORE SWAP2 DUP2 ADD DUP3 SWAP1 MSTORE PUSH1 0x60 DUP2 ADD DUP3 SWAP1 MSTORE PUSH1 0x80 DUP2 ADD DUP3 SWAP1 MSTORE PUSH1 0xA0 DUP2 ADD DUP3 SWAP1 MSTORE PUSH1 0xC0 DUP2 ADD DUP3 SWAP1 MSTORE PUSH1 0xE0 DUP2 ADD SWAP2 SWAP1 SWAP2 MSTORE PUSH1 0x0 DUP3 DUP2 MSTORE PUSH1 0x1 PUSH1 0x20 DUP2 DUP2 MSTORE PUSH1 0x40 SWAP3 DUP4 SWAP1 KECCAK256 DUP4 MLOAD PUSH2 0x100 DUP2 ADD DUP6 MSTORE DUP2 SLOAD DUP2 MSTORE SWAP3 DUP2 ADD SLOAD PUSH1 0x1 PUSH1 0x1 PUSH1 0xA0 SHL SUB SWAP1 DUP2 AND SWAP3 DUP5 ADD SWAP3 SWAP1 SWAP3 MSTORE PUSH1 0x2 DUP1 DUP3 ADD SLOAD SWAP1 SWAP3 AND SWAP4 DUP4 ADD SWAP4 SWAP1 SWAP4 MSTORE PUSH1 0x3 DUP4 ADD SLOAD PUSH1 0x60 DUP4 ADD MSTORE PUSH1 0x4 DUP4 ADD SLOAD SWAP2 SWAP3 SWAP2 PUSH1 0x80 DUP5 ADD SWAP2 PUSH1 0xFF SWAP1 SWAP2 AND SWAP1 DUP2 GT ISZERO PUSH2 0x6B0 JUMPI PUSH2 0x6B0 PUSH2 0xA1C JUMP JUMPDEST PUSH1 0x2 DUP2 GT ISZERO PUSH2 0x6C1 JUMPI PUSH2 0x6C1 PUSH2 0xA1C JUMP JUMPDEST DUP2 MSTORE PUSH1 0x5 DUP3 ADD SLOAD PUSH1 0x20 DUP3 ADD MSTORE PUSH1 0x6 DUP3 ADD SLOAD PUSH1 0xFF AND ISZERO ISZERO PUSH1 0x40 DUP3 ADD MSTORE PUSH1 0x7 SWAP1 SWAP2 ADD SLOAD PUSH1 0x60 SWAP1 SWAP2 ADD MSTORE SWAP3 SWAP2 POP POP JUMP JUMPDEST PUSH1 0x0 DUP2 DUP2 MSTORE PUSH1 0x1 PUSH1 0x20 MSTORE PUSH1 0x40 DUP2 KECCAK256 PUSH1 0x6 DUP2 ADD SLOAD PUSH1 0xFF AND DUP1 ISZERO PUSH2 0x71C JUMPI POP PUSH1 0x1 DUP2 ADD SLOAD PUSH1 0x1 PUSH1 0x1 PUSH1 0xA0 SHL SUB AND ISZERO ISZERO JUMPDEST DUP1 ISZERO PUSH2 0x72C JUMPI POP DUP1 PUSH1 0x5 ADD SLOAD TIMESTAMP LT ISZERO JUMPDEST SWAP4 SWAP3 POP POP POP JUMP JUMPDEST PUSH1 0x0 PUSH1 0x1 PUSH1 0x1 PUSH1 0xA0 SHL SUB DUP5 AND PUSH2 0x75C JUMPI PUSH1 0x40 MLOAD PUSH4 0x4E469669 PUSH1 0xE1 SHL DUP2 MSTORE PUSH1 0x4 ADD PUSH1 0x40 MLOAD DUP1 SWAP2 SUB SWAP1 REVERT JUMPDEST DUP3 PUSH1 0x0 SUB PUSH2 0x77D JUMPI PUSH1 0x40 MLOAD PUSH4 0x162908E3 PUSH1 0xE1 SHL DUP2 MSTORE PUSH1 0x4 ADD PUSH1 0x40 MLOAD DUP1 SWAP2 SUB SWAP1 REVERT JUMPDEST PUSH1 0x0 DUP1 SLOAD SWAP1 DUP1 PUSH2 0x78C DUP4 PUSH2 0xC00 JUMP JUMPDEST SWAP2 SWAP1 POP SSTORE SWAP1 POP PUSH1 0x0 PUSH2 0x79E TIMESTAMP DUP5 PUSH2 0x954 JUMP JUMPDEST SWAP1 POP PUSH1 0x40 MLOAD DUP1 PUSH2 0x100 ADD PUSH1 0x40 MSTORE DUP1 DUP4 DUP2 MSTORE PUSH1 0x20 ADD CALLER PUSH1 0x1 PUSH1 0x1 PUSH1 0xA0 SHL SUB AND DUP2 MSTORE PUSH1 0x20 ADD DUP7 PUSH1 0x1 PUSH1 0x1 PUSH1 0xA0 SHL SUB AND DUP2 MSTORE PUSH1 0x20 ADD DUP6 DUP2 MSTORE PUSH1 0x20 ADD DUP5 PUSH1 0x2 DUP2 GT ISZERO PUSH2 0x7E8 JUMPI PUSH2 0x7E8 PUSH2 0xA1C JUMP JUMPDEST DUP2 MSTORE PUSH1 0x20 DUP1 DUP3 ADD DUP5 SWAP1 MSTORE PUSH1 0x1 PUSH1 0x40 DUP1 DUP5 ADD DUP3 SWAP1 MSTORE TIMESTAMP PUSH1 0x60 SWAP5 DUP6 ADD MSTORE PUSH1 0x0 DUP8 DUP2 MSTORE DUP3 DUP5 MSTORE DUP2 SWAP1 KECCAK256 DUP6 MLOAD DUP2 SSTORE SWAP3 DUP6 ADD MLOAD DUP4 DUP4 ADD DUP1 SLOAD PUSH1 0x1 PUSH1 0x1 PUSH1 0xA0 SHL SUB SWAP3 DUP4 AND PUSH1 0x1 PUSH1 0x1 PUSH1 0xA0 SHL SUB NOT SWAP2 DUP3 AND OR SWAP1 SWAP2 SSTORE SWAP2 DUP7 ADD MLOAD PUSH1 0x2 DUP1 DUP7 ADD DUP1 SLOAD SWAP3 SWAP1 SWAP4 AND SWAP2 SWAP1 SWAP4 AND OR SWAP1 SSTORE SWAP3 DUP5 ADD MLOAD PUSH1 0x3 DUP4 ADD SSTORE PUSH1 0x80 DUP5 ADD MLOAD PUSH1 0x4 DUP4 ADD DUP1 SLOAD SWAP4 SWAP5 SWAP2 SWAP4 SWAP1 SWAP3 PUSH1 0xFF NOT SWAP1 SWAP2 AND SWAP2 DUP5 SWAP1 DUP2 GT ISZERO PUSH2 0x87E JUMPI PUSH2 0x87E PUSH2 0xA1C JUMP JUMPDEST MUL OR SWAP1 SSTORE POP PUSH1 0xA0 DUP3 ADD MLOAD PUSH1 0x5 DUP3 ADD SSTORE PUSH1 0xC0 DUP3 ADD MLOAD PUSH1 0x6 DUP3 ADD DUP1 SLOAD PUSH1 0xFF NOT AND SWAP2 ISZERO ISZERO SWAP2 SWAP1 SWAP2 OR SWAP1 SSTORE PUSH1 0xE0 SWAP1 SWAP2 ADD MLOAD PUSH1 0x7 SWAP1 SWAP2 ADD SSTORE CALLER PUSH1 0x0 DUP2 DUP2 MSTORE PUSH1 0x2 PUSH1 0x20 SWAP1 DUP2 MSTORE PUSH1 0x40 DUP1 DUP4 KECCAK256 DUP1 SLOAD PUSH1 0x1 DUP2 ADD DUP3 SSTORE SWAP1 DUP5 MSTORE SWAP2 SWAP1 SWAP3 KECCAK256 ADD DUP5 SWAP1 SSTORE MLOAD PUSH1 0x1 PUSH1 0x1 PUSH1 0xA0 SHL SUB DUP8 AND SWAP2 SWAP1 DUP5 SWAP1 PUSH32 0xAB4F580BDE502587D4FA8B7387EC8136568889C43EF6A3C57FBD16C36BF78C5D SWAP1 PUSH2 0x916 SWAP1 DUP10 SWAP1 DUP10 SWAP1 DUP9 SWAP1 PUSH2 0xC19 JUMP JUMPDEST PUSH1 0x40 MLOAD DUP1 SWAP2 SUB SWAP1 LOG4 POP SWAP4 SWAP3 POP POP POP JUMP JUMPDEST PUSH2 0x92E PUSH2 0x9BF JUMP JUMPDEST PUSH1 0x2 PUSH32 0x9B779B17422D0DF92223018B32B4D1FA46E071723D6817E2486D003BECC55F00 SSTORE JUMP JUMPDEST PUSH1 0x0 DUP1 DUP3 PUSH1 0x2 DUP2 GT ISZERO PUSH2 0x969 JUMPI PUSH2 0x969 PUSH2 0xA1C JUMP JUMPDEST SUB PUSH2 0x982 JUMPI PUSH2 0x97B DUP4 PUSH3 0x93A80 PUSH2 0xC3B JUMP JUMPDEST SWAP1 POP PUSH2 0x9B9 JUMP JUMPDEST PUSH1 0x1 DUP3 PUSH1 0x2 DUP2 GT ISZERO PUSH2 0x996 JUMPI PUSH2 0x996 PUSH2 0xA1C JUMP JUMPDEST SUB PUSH2 0x9A8 JUMPI PUSH2 0x97B DUP4 PUSH3 0x278D00 PUSH2 0xC3B JUMP JUMPDEST PUSH2 0x9B6 DUP4 PUSH4 0x1E13380 PUSH2 0xC3B JUMP JUMPDEST SWAP1 POP JUMPDEST SWAP3 SWAP2 POP POP JUMP JUMPDEST PUSH32 0x9B779B17422D0DF92223018B32B4D1FA46E071723D6817E2486D003BECC55F00 SLOAD PUSH1 0x2 SUB PUSH2 0xA01 JUMPI PUSH1 0x40 MLOAD PUSH4 0x3EE5AEB5 PUSH1 0xE0 SHL DUP2 MSTORE PUSH1 0x4 ADD PUSH1 0x40 MLOAD DUP1 SWAP2 SUB SWAP1 REVERT JUMPDEST JUMP JUMPDEST PUSH1 0x0 PUSH1 0x20 DUP3 DUP5 SUB SLT ISZERO PUSH2 0xA15 JUMPI PUSH1 0x0 DUP1 REVERT JUMPDEST POP CALLDATALOAD SWAP2 SWAP1 POP JUMP JUMPDEST PUSH4 0x4E487B71 PUSH1 0xE0 SHL PUSH1 0x0 MSTORE PUSH1 0x21 PUSH1 0x4 MSTORE PUSH1 0x24 PUSH1 0x0 REVERT JUMPDEST PUSH1 0x3 DUP2 LT PUSH2 0xA50 JUMPI PUSH4 0x4E487B71 PUSH1 0xE0 SHL PUSH1 0x0 MSTORE PUSH1 0x21 PUSH1 0x4 MSTORE PUSH1 0x24 PUSH1 0x0 REVERT JUMPDEST SWAP1 MSTORE JUMP JUMPDEST DUP9 DUP2 MSTORE PUSH1 0x1 PUSH1 0x1 PUSH1 0xA0 SHL SUB DUP9 DUP2 AND PUSH1 0x20 DUP4 ADD MSTORE DUP8 AND PUSH1 0x40 DUP3 ADD MSTORE PUSH1 0x60 DUP2 ADD DUP7 SWAP1 MSTORE PUSH2 0x100 DUP2 ADD PUSH2 0xA87 PUSH1 0x80 DUP4 ADD DUP8 PUSH2 0xA32 JUMP JUMPDEST PUSH1 0xA0 DUP3 ADD SWAP5 SWAP1 SWAP5 MSTORE SWAP2 ISZERO ISZERO PUSH1 0xC0 DUP4 ADD MSTORE PUSH1 0xE0 SWAP1 SWAP2 ADD MSTORE SWAP6 SWAP5 POP POP POP POP POP JUMP JUMPDEST DUP1 CALLDATALOAD PUSH1 0x1 PUSH1 0x1 PUSH1 0xA0 SHL SUB DUP2 AND DUP2 EQ PUSH2 0xABD JUMPI PUSH1 0x0 DUP1 REVERT JUMPDEST SWAP2 SWAP1 POP JUMP JUMPDEST PUSH1 0x0 PUSH1 0x20 DUP3 DUP5 SUB SLT ISZERO PUSH2 0xAD4 JUMPI PUSH1 0x0 DUP1 REVERT JUMPDEST PUSH2 0x9B6 DUP3 PUSH2 0xAA6 JUMP JUMPDEST PUSH1 0x20 DUP1 DUP3 MSTORE DUP3 MLOAD DUP3 DUP3 ADD DUP2 SWAP1 MSTORE PUSH1 0x0 SWAP2 SWAP1 DUP5 DUP3 ADD SWAP1 PUSH1 0x40 DUP6 ADD SWAP1 DUP5 JUMPDEST DUP2 DUP2 LT ISZERO PUSH2 0xB15 JUMPI DUP4 MLOAD DUP4 MSTORE SWAP3 DUP5 ADD SWAP3 SWAP2 DUP5 ADD SWAP2 PUSH1 0x1 ADD PUSH2 0xAF9 JUMP JUMPDEST POP SWAP1 SWAP7 SWAP6 POP POP POP POP POP POP JUMP JUMPDEST PUSH1 0x0 PUSH2 0x100 DUP3 ADD SWAP1 POP DUP3 MLOAD DUP3 MSTORE PUSH1 0x20 DUP4 ADD MLOAD PUSH1 0x1 DUP1 PUSH1 0xA0 SHL SUB DUP1 DUP3 AND PUSH1 0x20 DUP6 ADD MSTORE DUP1 PUSH1 0x40 DUP7 ADD MLOAD AND PUSH1 0x40 DUP6 ADD MSTORE POP POP PUSH1 0x60 DUP4 ADD MLOAD PUSH1 0x60 DUP4 ADD MSTORE PUSH1 0x80 DUP4 ADD MLOAD PUSH2 0xB6C PUSH1 0x80 DUP5 ADD DUP3 PUSH2 0xA32 JUMP JUMPDEST POP PUSH1 0xA0 DUP4 ADD MLOAD PUSH1 0xA0 DUP4 ADD MSTORE PUSH1 0xC0 DUP4 ADD MLOAD ISZERO ISZERO PUSH1 0xC0 DUP4 ADD MSTORE PUSH1 0xE0 DUP4 ADD MLOAD PUSH1 0xE0 DUP4 ADD MSTORE SWAP3 SWAP2 POP POP JUMP JUMPDEST PUSH1 0x0 DUP1 PUSH1 0x0 PUSH1 0x60 DUP5 DUP7 SUB SLT ISZERO PUSH2 0xBA8 JUMPI PUSH1 0x0 DUP1 REVERT JUMPDEST PUSH2 0xBB1 DUP5 PUSH2 0xAA6 JUMP JUMPDEST SWAP3 POP PUSH1 0x20 DUP5 ADD CALLDATALOAD SWAP2 POP PUSH1 0x40 DUP5 ADD CALLDATALOAD PUSH1 0x3 DUP2 LT PUSH2 0xBCC JUMPI PUSH1 0x0 DUP1 REVERT JUMPDEST DUP1 SWAP2 POP POP SWAP3 POP SWAP3 POP SWAP3 JUMP JUMPDEST PUSH4 0x4E487B71 PUSH1 0xE0 SHL PUSH1 0x0 MSTORE PUSH1 0x11 PUSH1 0x4 MSTORE PUSH1 0x24 PUSH1 0x0 REVERT JUMPDEST DUP2 DUP2 SUB DUP2 DUP2 GT ISZERO PUSH2 0x9B9 JUMPI PUSH2 0x9B9 PUSH2 0xBD7 JUMP JUMPDEST PUSH1 0x0 PUSH1 0x1 DUP3 ADD PUSH2 0xC12 JUMPI PUSH2 0xC12 PUSH2 0xBD7 JUMP JUMPDEST POP PUSH1 0x1 ADD SWAP1 JUMP JUMPDEST DUP4 DUP2 MSTORE PUSH1 0x60 DUP2 ADD PUSH2 0xC2D PUSH1 0x20 DUP4 ADD DUP6 PUSH2 0xA32 JUMP JUMPDEST DUP3 PUSH1 0x40 DUP4 ADD MSTORE SWAP5 SWAP4 POP POP POP POP JUMP JUMPDEST DUP1 DUP3 ADD DUP1 DUP3 GT ISZERO PUSH2 0x9B9 JUMPI PUSH2 0x9B9 PUSH2 0xBD7 JUMP INVALID LOG2 PUSH5 0x6970667358 0x22 SLT KECCAK256 SLOAD 0xC3 DUP6 SWAP8 0xCD 0xCA SWAP9 0xCC 0xB8 0x4F KECCAK256 PUSH18 0x7E214F98DF0382718974D88D50DFA0245D8D DUP4 0xD5 PUSH5 0x736F6C6343 STOP ADDMOD XOR STOP CALLER "},"methodIdentifiers":{"cancel(uint256)":"40e58ee5","getSubscription(uint256)":"dc311dd3","getSubscriptionsBySubscriber(address)":"812ed898","isPaymentDue(uint256)":"e816e87f","nextSubscriptionId()":"da58935f","pay(uint256)":"c290d691","subscribe(address,uint256,uint8)":"f4aec321","subscriptions(uint256)":"2d5bbf60"}}}}}