{
  "_format": "hh-sol-artifact-1",
  "contractName": "SubscriptionManagerFLOW",
  "sourceName": "contracts/SubscriptionManagerFLOW.sol",
  "abi": [
    {
      "inputs": [],
      "name": "InsufficientValue",
      "type": "error"
    },
    {
      "inputs": [],
      "name": "InvalidAmount",
      "type": "error"
    },
    {
      "inputs": [],
      "name": "InvalidRecipient",
      "type": "error"
    },
    {
      "inputs": [],
      "name": "NotSubscriber",
      "type": "error"
    },
    {
      "inputs": [],
      "name": "PaymentNotDue",
      "type": "error"
    },
    {
      "inputs": [],
      "name": "ReentrancyGuardReentrantCall",
      "type": "error"
    },
    {
      "inputs": [],
      "name": "SubscriptionInactive",
      "type": "error"
    },
    {
      "inputs": [],
      "name": "SubscriptionNotFound",
      "type": "error"
    },
    {
      "inputs": [],
      "name": "TransferFailed",
      "type": "error"
    },
    {
      "anonymous": false,
      "inputs": [
        {
          "indexed": true,
          "internalType": "uint256",
          "name": "subscriptionId",
          "type": "uint256"
        },
        {
          "indexed": true,
          "internalType": "address",
          "name": "subscriber",
          "type": "address"
        },
        {
          "indexed": true,
          "internalType": "address",
          "name": "recipient",
          "type": "address"
        },
        {
          "indexed": false,
          "internalType": "uint256",
          "name": "amount",
          "type": "uint256"
        },
        {
          "indexed": false,
          "internalType": "uint256",
          "name": "nextDueAt",
          "type": "uint256"
        },
        {
          "indexed": false,
          "internalType": "uint256",
          "name": "timestamp",
          "type": "uint256"
        }
      ],
      "name": "PaymentMade",
      "type": "event"
    },
    {
      "anonymous": false,
      "inputs": [
        {
          "indexed": true,
          "internalType": "uint256",
          "name": "subscriptionId",
          "type": "uint256"
        },
        {
          "indexed": true,
          "internalType": "address",
          "name": "subscriber",
          "type": "address"
        },
        {
          "indexed": true,
          "internalType": "address",
          "name": "recipient",
          "type": "address"
        }
      ],
      "name": "SubscriptionCancelled",
      "type": "event"
    },
    {
      "anonymous": false,
      "inputs": [
        {
          "indexed": true,
          "internalType": "uint256",
          "name": "subscriptionId",
          "type": "uint256"
        },
        {
          "indexed": true,
          "internalType": "address",
          "name": "subscriber",
          "type": "address"
        },
        {
          "indexed": true,
          "internalType": "address",
          "name": "recipient",
          "type": "address"
        },
        {
          "indexed": false,
          "internalType": "uint256",
          "name": "amountPerCycle",
          "type": "uint256"
        },
        {
          "indexed": false,
          "internalType": "enum SubscriptionManagerFLOW.Frequency",
          "name": "frequency",
          "type": "uint8"
        },
        {
          "indexed": false,
          "internalType": "uint256",
          "name": "nextDueAt",
          "type": "uint256"
        }
      ],
      "name": "SubscriptionCreated",
      "type": "event"
    },
    {
      "inputs": [
        {
          "internalType": "uint256",
          "name": "subscriptionId",
          "type": "uint256"
        }
      ],
      "name": "cancel",
      "outputs": [],
      "stateMutability": "nonpayable",
      "type": "function"
    },
    {
      "inputs": [
        {
          "internalType": "uint256",
          "name": "subscriptionId",
          "type": "uint256"
        }
      ],
      "name": "getSubscription",
      "outputs": [
        {
          "components": [
            {
              "internalType": "uint256",
              "name": "id",
              "type": "uint256"
            },
            {
              "internalType": "address",
              "name": "subscriber",
              "type": "address"
            },
            {
              "internalType": "address",
              "name": "recipient",
              "type": "address"
            },
            {
              "internalType": "uint256",
              "name": "amountPerCycle",
              "type": "uint256"
            },
            {
              "internalType": "enum SubscriptionManagerFLOW.Frequency",
              "name": "frequency",
              "type": "uint8"
            },
            {
              "internalType": "uint256",
              "name": "nextDueAt",
              "type": "uint256"
            },
            {
              "internalType": "bool",
              "name": "active",
              "type": "bool"
            },
            {
              "internalType": "uint256",
              "name": "createdAt",
              "type": "uint256"
            }
          ],
          "internalType": "struct SubscriptionManagerFLOW.Subscription",
          "name": "",
          "type": "tuple"
        }
      ],
      "stateMutability": "view",
      "type": "function"
    },
    {
      "inputs": [
        {
          "internalType": "address",
          "name": "subscriber",
          "type": "address"
        }
      ],
      "name": "getSubscriptionsBySubscriber",
      "outputs": [
        {
          "internalType": "uint256[]",
          "name": "",
          "type": "uint256[]"
        }
      ],
      "stateMutability": "view",
      "type": "function"
    },
    {
      "inputs": [
        {
          "internalType": "uint256",
          "name": "subscriptionId",
          "type": "uint256"
        }
      ],
      "name": "isPaymentDue",
      "outputs": [
        {
          "internalType": "bool",
          "name": "",
          "type": "bool"
        }
      ],
      "stateMutability": "view",
      "type": "function"
    },
    {
      "inputs": [],
      "name": "nextSubscriptionId",
      "outputs": [
        {
          "internalType": "uint256",
          "name": "",
          "type": "uint256"
        }
      ],
      "stateMutability": "view",
      "type": "function"
    },
    {
      "inputs": [
        {
          "internalType": "uint256",
          "name": "subscriptionId",
          "type": "uint256"
        }
      ],
      "name": "pay",
      "outputs": [],
      "stateMutability": "payable",
      "type": "function"
    },
    {
      "inputs": [
        {
          "internalType": "address",
          "name": "recipient",
          "type": "address"
        },
        {
          "internalType": "uint256",
          "name": "amountPerCycle",
          "type": "uint256"
        },
        {
          "internalType": "enum SubscriptionManagerFLOW.Frequency",
          "name": "frequency",
          "type": "uint8"
        }
      ],
      "name": "subscribe",
      "outputs": [
        {
          "internalType": "uint256",
          "name": "subscriptionId",
          "type": "uint256"
        }
      ],
      "stateMutability": "nonpayable",
      "type": "function"
    },
    {
      "inputs": [
        {
          "internalType": "uint256",
          "name": "",
          "type": "uint256"
        }
      ],
      "name": "subscriptions",
      "outputs": [
        {
          "internalType": "uint256",
          "name": "id",
          "type": "uint256"
        },
        {
          "internalType": "address",
          "name": "subscriber",
          "type": "address"
        },
        {
          "internalType": "address",
          "name": "recipient",
          "type": "address"
        },
        {
          "internalType": "uint256",
          "name": "amountPerCycle",
          "type": "uint256"
        },
        {
          "internalType": "enum SubscriptionManagerFLOW.Frequency",
          "name": "frequency",
          "type": "uint8"
        },
        {
          "internalType": "uint256",
          "name": "nextDueAt",
          "type": "uint256"
        },
        {
          "internalType": "bool",
          "name": "active",
          "type": "bool"
        },
        {
          "internalType": "uint256",
          "name": "createdAt",
          "type": "uint256"
        }
      ],
      "stateMutability": "view",
      "type": "function"
    }
  ],
  "bytecode": "0x608060405234801561001057600080fd5b5060017f9b779b17422d0df92223018b32b4d1fa46e071723d6817e2486d003becc55f0055610c7b806100446000396000f3fe60806040526004361061007b5760003560e01c8063da58935f1161004e578063da58935f14610170578063dc311dd314610194578063e816e87f146101c1578063f4aec321146101f157600080fd5b80632d5bbf601461008057806340e58ee51461010e578063812ed89814610130578063c290d6911461015d575b600080fd5b34801561008c57600080fd5b506100f161009b3660046109fa565b6001602081905260009182526040909120805491810154600282015460038301546004840154600585015460068601546007909601546001600160a01b03958616969490951694929360ff928316939192169088565b604051610105989796959493929190610a4b565b60405180910390f35b34801561011a57600080fd5b5061012e6101293660046109fa565b610211565b005b34801561013c57600080fd5b5061015061014b366004610ab9565b6102ce565b6040516101059190610ad4565b61012e61016b3660046109fa565b61033a565b34801561017c57600080fd5b5061018660005481565b604051908152602001610105565b3480156101a057600080fd5b506101b46101af3660046109fa565b6105fe565b6040516101059190610b18565b3480156101cd57600080fd5b506101e16101dc3660046109fa565b6106ee565b6040519015158152602001610105565b3480156101fd57600080fd5b5061018661020c366004610b8a565b610733565b6000818152600160208190526040909120908101546001600160a01b031661024c57604051631a00354f60e01b815260040160405180910390fd5b60018101546001600160a01b031633146102795760405163251cb70160e11b815260040160405180910390fd5b60068101805460ff19169055600281015460018201546040516001600160a01b03928316929091169084907f8b143fab101681a84d31f59bde0822fdc5f999c709e0f1e85b0916c6ddc5bc5990600090a45050565b6001600160a01b03811660009081526002602090815260409182902080548351818402810184019094528084526060939283018282801561032e57602002820191906000526020600020905b81548152602001906001019080831161031a575b50505050509050919050565b61034261091d565b6000818152600160208190526040909120908101546001600160a01b031661037d57604051631a00354f60e01b815260040160405180910390fd5b600681015460ff166103a2576040516349e541ff60e11b815260040160405180910390fd5b60018101546001600160a01b031633146103cf5760405163251cb70160e11b815260040160405180910390fd5b80600501544210156103f35760405162a71fbb60e01b815260040160405180910390fd5b6003810154348111156104195760405163044044a560e21b815260040160405180910390fd5b60058201546004830154610430919060ff1661094b565b600583015560028201546040516000916001600160a01b03169083908381818185875af1925050503d8060008114610484576040519150601f19603f3d011682016040523d82523d6000602084013e610489565b606091505b50509050806104ab576040516312171d8360e31b815260040160405180910390fd5b8134111561056d576000336104c08434610be4565b604051600081818185875af1925050503d80600081146104fc576040519150601f19603f3d011682016040523d82523d6000602084013e610501565b606091505b505090508061056b5760028401546000906001600160a01b03166105258534610be4565b604051600081818185875af1925050503d8060008114610561576040519150601f19603f3d011682016040523d82523d6000602084013e610566565b606091505b505050505b505b60028301546001840154600585015460408051868152602081019290925242908201526001600160a01b03928316929091169086907f61c165d60a2e55bac037cb5ed9e61b19cfd83d03fd4ad23bf4193636cdd0cbf09060600160405180910390a45050506105fb60017f9b779b17422d0df92223018b32b4d1fa46e071723d6817e2486d003becc55f0055565b50565b6040805161010081018252600080825260208201819052918101829052606081018290526080810182905260a0810182905260c0810182905260e081019190915260008281526001602081815260409283902083516101008101855281548152928101546001600160a01b039081169284019290925260028082015490921693830193909352600383015460608301526004830154919291608084019160ff909116908111156106b0576106b0610a13565b60028111156106c1576106c1610a13565b815260058201546020820152600682015460ff161515604082015260079091015460609091015292915050565b6000818152600160205260408120600681015460ff16801561071c575060018101546001600160a01b031615155b801561072c575080600501544210155b9392505050565b60006001600160a01b03841661075c57604051634e46966960e11b815260040160405180910390fd5b8260000361077d5760405163162908e360e11b815260040160405180910390fd5b60008054908061078c83610bf7565b9190505590506000429050604051806101000160405280838152602001336001600160a01b03168152602001866001600160a01b031681526020018581526020018460028111156107df576107df610a13565b8152602080820184905260016040808401829052426060948501526000878152828452819020855181559285015183830180546001600160a01b039283166001600160a01b03199182161790915591860151600280860180549290931691909316179055928401516003830155608084015160048301805493949193909260ff1990911691849081111561087557610875610a13565b021790555060a0820151600582015560c082015160068201805460ff191691151591909117905560e09091015160079091015533600081815260026020908152604080832080546001810182559084529190922001849055516001600160a01b038716919084907fab4f580bde502587d4fa8b7387ec8136568889c43ef6a3c57fbd16c36bf78c5d9061090d90899089908890610c10565b60405180910390a4509392505050565b6109256109b6565b60027f9b779b17422d0df92223018b32b4d1fa46e071723d6817e2486d003becc55f0055565b60008082600281111561096057610960610a13565b03610979576109728362093a80610c32565b90506109b0565b600182600281111561098d5761098d610a13565b0361099f576109728362278d00610c32565b6109ad836301e13380610c32565b90505b92915050565b7f9b779b17422d0df92223018b32b4d1fa46e071723d6817e2486d003becc55f00546002036109f857604051633ee5aeb560e01b815260040160405180910390fd5b565b600060208284031215610a0c57600080fd5b5035919050565b634e487b7160e01b600052602160045260246000fd5b60038110610a4757634e487b7160e01b600052602160045260246000fd5b9052565b8881526001600160a01b03888116602083015287166040820152606081018690526101008101610a7e6080830187610a29565b60a082019490945291151560c083015260e09091015295945050505050565b80356001600160a01b0381168114610ab457600080fd5b919050565b600060208284031215610acb57600080fd5b6109ad82610a9d565b6020808252825182820181905260009190848201906040850190845b81811015610b0c57835183529284019291840191600101610af0565b50909695505050505050565b60006101008201905082518252602083015160018060a01b0380821660208501528060408601511660408501525050606083015160608301526080830151610b636080840182610a29565b5060a083015160a083015260c0830151151560c083015260e083015160e083015292915050565b600080600060608486031215610b9f57600080fd5b610ba884610a9d565b925060208401359150604084013560038110610bc357600080fd5b809150509250925092565b634e487b7160e01b600052601160045260246000fd5b818103818111156109b0576109b0610bce565b600060018201610c0957610c09610bce565b5060010190565b83815260608101610c246020830185610a29565b826040830152949350505050565b808201808211156109b0576109b0610bce56fea2646970667358221220c3bdfc05aa439923d587e40289889da2159cef796284ad78a133ef7f9ad39fde64736f6c63430008180033",
  "linkReferences": {},
  "deployedLinkReferences": {}
}